:020000041000EA
:1000000000B5324B212058609868022188439860DF
:10001000D860186158612E4B002199600221596106
:100020000121F02299502B49196001219960352056
:1000300000F044F80222904214D00621196600F024
:1000400034F8196E01211966002018661A6600F04E
:100050002CF8196E196E196E052000F02FF8012189
:100060000842F9D1002199601B49196000215960AB
:100070001A491B48016001219960EB211966A021F2
:10008000196600F012F800219960164914480160C1
:100090000121996001BC002800D000471248134993
:1000A000086003C880F30888084703B5996A0420EC
:1000B0000142FBD001200142F8D103BD02B5186610
:1000C0001866FFF7F2FF186E186E02BD00000240BE
:1000D000000000180000070000035F00212200005C
:1000E000F4000018222000A00001001008ED00E03C
:1000F00000000000000000000000000074B24E7A12
:1001000000200420F7010010C3010010C5010010F9
:10011000C1010010C1010010C1010010C101001097
:10012000C1010010C1010010C1010010C701001081
:10013000C1010010C1010010C9010010CB01001065
:10014000CD010010CD010010CD010010CD01001037
:10015000CD010010CD010010CD010010CD01001027
:10016000CD010010CD010010CD010010CD01001017
:10017000CD010010CD010010CD010010CD01001007
:10018000CD010010CD010010CD010010CD010010F7
:10019000CD010010CD010010CD010010CD010010E7
:1001A000CD010010CD010010CD010010CD010010D7
:1001B000CD010010CD010010CD010010CD010010C7
:1001C00000BE00BE00BE00BE00BE00BEEFF3058054
:1001D000103800BEF2EB8871F48B0010148C001004
:1001E0003402001090A31AE700201F49086006C8D7
:1001F00081F3088810471D48006800282FD10DA4FE
:100200000ECC002902D000F012F8F9E71849194A7B
:10021000002000E001C19142FCD1174988471749ED
:1002200088471749884700BEFDE701C901C29A42C5
:10023000FBD37047148C0010C0000020080C002075
:100240005C97001000000420000004205C97001060
:10025000001004200010042000000000704709482E
:1002600003F05EFA0047000008ED00E0000000D057
:10027000080C00208C1B0020FD230010210400101E
:10028000BD2300105756000006005250ABB3605318
:10029000607E001006005250861C0302707E001023
:1002A000060052505422A29D787E00100500525044
:1002B000DE65F4685C970010F8B5C046064807494B
:1002C000091A8B10C90FC91810B5491003D0044B77
:1002D000002B00D0984710BD080C0020080C00200F
:1002E00000000000054B10B5002B03D00449054861
:1002F00000E000BFFFF7E2FF10BDC04600000000B5
:10030000141700203873001010B504001F2100F0EE
:10031000D5F900220021200000F0E8F9002120009A
:1003200000F0FEF910BD000010B5002B02DB0260EA
:10033000436010BD024B034A03483F2102F042F8DC
:1003400038730010408300105473001010B582B051
:10035000040001F09FFB02000B006846FFF7E4FF7A
:10036000009A019B22606360200002B010BD000073
:10037000F8B5CE46474680B580460F009146002529
:1003800018E03919C9B243465819C0B2002200F02A
:100390000DF90134072C0CDC33002341DB07F0D5C9
:1003A0003919C9B243465819C0B2012200F0FEF80B
:1003B000EFE70135042D08DC49462039054B8A005A
:1003C00052189B185E5D0024E4E7C0BCB946B046F5
:1003D000F8BDC04658830010F8B5CE46474680B5F4
:1003E000814688461700002511E01921280003F0F6
:1003F000C3F98C0064181921280003F0BDF9C1006D
:100400004144200048443200FFF7B2FF01357E5DD1
:10041000002EEAD100F0A2F8C0BCB946B046F8BD43
:1004200010B5B4B004F06AFA384B1B78002B68D1D1
:10043000374804F027FA3748374906F08BFE032186
:10044000042000F03BF90321052000F037F900F00B
:10045000E1F8FA2001F09FFA06F0B4FE1A20FFF747
:1004600053FF2E4B1B68E022D20113402C4A13602D
:100470000F2000F06DF9D0231B06802212025A6271
:10048000D0231B06802212025A61264B04221A60D6
:10049000224B1B68DB05FBD5204B5A681204120C5B
:1004A000214902A803F00EF96846FFF74FFF009CB0
:1004B00002AA01210120FFF78FFF6846FFF746FFE0
:1004C0000098001B03F058FC02000B0000201749A5
:1004D00003F0C7FB02000B00154902A803F0F2F875
:1004E00002AA18210120FFF777FFD0231B068022E4
:1004F00012029A61FA2001F04EFAC1E7642001F07D
:100500004AFA04F015FC0028F8D091E7811B00207E
:10051000AC730010E00B0020A086010000C0044076
:1005200000D0044000E00440B473001080842E41E9
:10053000C473001000B585B000236A46137350736E
:10054000044A117804480093023303AA06F02EFEF1
:1005500005B000BD000B0020E00B002000B583B00B
:100560002220FFF7E7FF0020FFF7E4FFFF20FFF75F
:10057000E1FF2120FFF7DEFF0020FFF7DBFF7F20F8
:10058000FFF7D8FF054A064B197806480023009369
:10059000054B06F00BFE03B000BDC0465419002009
:1005A000000B0020E00B00200102000010B543B258
:1005B000002B11DB1F290FD8012A0ED0CA08D20147
:1005C000013012180B48845C07231940063B8B400E
:1005D000DB435BB22340835410BDCB08DB01013009
:1005E0001818044C235C06321140063A8A40134323
:1005F0002354F1E75419002010B5054C80229200D5
:100600000021200003F0D8FF4023237010BDC04616
:100610005419002010B5284B40221A70142001F004
:10062000BAF9AE20FFF786FFD520FFF783FF8020C1
:10063000FFF780FFA820FFF77DFF1F20FFF77AFF5D
:10064000D320FFF777FF0020FFF774FF4020FFF76C
:1006500071FF8D20FFF76EFF1420FFF76BFF202046
:10066000FFF768FF0020FFF765FFA120FFF762FF9B
:10067000C820FFF75FFFDA20FFF75CFF0220FFF7DB
:1006800059FF8120FFF756FF8F20FFF753FFD92036
:10069000FFF750FFF120FFF74DFFDB20FFF74AFF88
:1006A0004020FFF747FFAF20FFF744FFFFF7A4FF0D
:1006B000FFF754FF10BDC0465419002010B5830049
:1006C000084A944663441A684024624080341440C7
:1006D0008022520113431C60C000034B9C466044BF
:1006E000416010BD04C001400040014080000B4B40
:1006F0009C46604400290DD00823002A0CD0042217
:100700001343026853400C221A4080235B010343C9
:100710001A6070470023F0E70022F1E704C00140AF
:10072000002909D08000094B9C46604480239B012E
:10073000034340221A6070478000044B9C4660448B
:10074000C0239B01034340221A60F4E704C0014028
:1007500010B501238340D0221206936293610521D4
:10076000FFF7ACFF10BD0000034B1B6802201840D0
:10077000431E9841C0B2704700C00640EFF310809E
:1007800072B6034B1B68002BFBD0BFF35F8F704723
:100790002C0100D0BFF35F8F024B00221A6080F360
:1007A000108870472C0100D0F8B506000C00150029
:1007B000FFF7E4FFE308F718F15C0722224001236A
:1007C00093400B4205D1DBB20B433B70FFF7E2FFD6
:1007D000F8BD2100280001F08DFEF0B583B00600C1
:1007E000019114001F00FFF7C9FF00E00134BC4273
:1007F0000CD8E308F518F35C0721214001228A4058
:100800001A42F3D1D2B21A432A7001E001246442A1
:10081000FFF7C0FF002C02DB200003B0F0BD019BFE
:10082000002BF9D0089801F065FE0000002307E0D6
:10083000054A9A189200BFF35F8F002111600133BF
:100840001F2BF5D97047C04640000034054A107888
:10085000431CDBB21370172B02D9130010221A703D
:100860007047C046010B002010B582B00100054C56
:10087000054B00931F2318222000FFF7AEFF02B0A4
:1008800010BDC0466C120020CC730010074B9B6853
:10089000103080001950BFF35F8FBFF35F8F044BA0
:1008A0000021196082F310887047C04600ED00E017
:1008B000240100D010B50388DA0A1C2A05D15B0593
:1008C0005B1502335B00C01810BD034B034A04489C
:1008D000B12101F077FDC046E87300108C8500104F
:1008E0000074001010B5091A0B1F0A4A88180A4A2A
:1008F000904208D8C90706D45B105B055B0D07481A
:10090000184380B210BD064B064A0748A32101F0E8
:1009100059FDC046FC070000FE0F000000E0FFFF8D
:1009200050740010808500100074001010B5091A72
:1009300004394A08090B08D14905490D064B0B43F8
:100940000380064B1343438010BD054B054A064800
:10095000AB2101F037FDC04600F0FFFF00F8FFFFBC
:10096000807400105485001000740010012383402F
:10097000034A10681840431E9841C0B27047C046F1
:1009800000E100E0002904D0034B1860034B18601D
:100990007047034B1860FBE780E200E000E100E0F5
:1009A00080E100E010B5012383401800FFF7EAFF63
:1009B00010BD000001238340014A13607047C04608
:1009C00000E200E0024B9B6810308000C058704786
:1009D00000ED00E010B5FFF7F5FF002805D0054B4E
:1009E000C01A2F2803D8012010BD0020FCE70020EA
:1009F000FAE7C046040B002070B504000D00EFF3C9
:100A0000108672B60C4B1B68002BFBD0BFF35F8FB8
:100A10002000FFF7D7FF094B984201D0A84205D12B
:100A2000320029002000FFF731FF70BD044B054A5A
:100A30000548862101F0C6FC240100D0CD0100103C
:100A400090740010B485001000740010F0B5DE46FC
:100A500057464E464546E0B589B08146019115009E
:100A6000EFF3108A72B66D4B1B68002BFBD0BFF3FF
:100A70005F8F6B4B00269E57002E41DB7400A4193C
:100A8000A400684824180622A256654B1A70664BCB
:100A90009A684B4610339B00D35898461F00181A8B
:100AA0002F2839D9614B984530D105AF604B3B8039
:100AB000604973009B46981980005A4B9846404401
:100AC0000230FFF70FFF78805B4BBB80FF23BB71C9
:100AD000FD71019B079333005B449B00434407CFA8
:100AE00007C301231C43A046524641464846FFF730
:100AF000CDFE09B0F0BCBB46B246A946A046F0BD4B
:100B00004E4B4F4A4F48D72101F05CFC4E4B4C4AAC
:100B10004C48DE2101F056FC01380C2102F054FE55
:100B2000002912D101239F43BB463B000027DA79FD
:100B3000AA4211D90621595600290CDB4A00521845
:100B4000920038491F008B18F1E7404B3C4A3D4862
:100B5000EA2101F037FC1F00002F2ED005AB3C4AE4
:100B60001A80813A5A800623FB560293002B17DA2B
:100B7000384805AB9B469880029A9A71DD71019ABC
:100B80000792381D2100FFF7ADFEB880BE71254BDE
:100B90007200921992009B185A4613CA13C3A3E716
:100BA000381DFFF787FE01007000801980001D4B83
:100BB000C0180430FFF796FEDBE705AF1C4B3B8007
:100BC0001C49730002939B199B00164A90461A0019
:100BD00042440392901CFFF785FE7880039A101D13
:100BE0005946FFF77FFEB8801B4B5A464146521AC2
:100BF000524153431B0DBB71FD71019A0792029B39
:100C00009B199B00434407CF07C3114B5A461380DF
:100C1000813B538001231C43A04665E7240100D09B
:100C2000861B0020040B002000ED00E0CD01001029
:100C300000A1FFFF340B002001BDFFFFC8740010AE
:100C40009C85001000740010F074001018750010DE
:100C50000148000001BD0000AAAA0000F0B5CE4680
:100C6000474680B583B006000D00EFF3108872B6DA
:100C70004F4B1B68002BFBD0BFF35F8F4D4B9A6827
:100C800034001034A300D7584B4B9F4207D0AF42DB
:100C900000D18BE00197494BFB1A2F2B09D9424613
:100CA00039003000FFF7F2FD03B0C0BCB946B046D2
:100CB000F0BD3000FFF75AFE814600213000FFF7FB
:100CC00071FEBFF35F8FEFF30581002901D08C42E5
:100CD00011D10123019C9C430020A368AB4212D098
:100CE0000622A256002A0DDB53009B189B00334AB4
:100CF0002000D418F1E7324B324A36213248FF3116
:100D000001F060FB2000AB4249D106256557002D5C
:100D10002BDB2A4B6A00521992009B189A68A2603A
:100D2000DA79E2719B795BB2A371002B0FDA274865
:100D3000A080224B6A00521992009B18244A117815
:100D40009971157049463000FFF72CFEA7E768003F
:100D500040198000194BC0180430FFF7ABFD0100AB
:100D6000231D1800FFF7BEFDE2E7002912D100287D
:100D70000ED0FF238371174B838015490B78A37125
:100D80000E4A154BA41A644163431B0D0B70D9E73F
:100D9000094FF2E71149201DFFF7C8FDD2E7104BBC
:100DA000084A6A210848FF3101F00CFB024F76E740
:100DB000240100D000ED00E0CD010010040B002064
:100DC0008C7500106C8500100074001001BD0000CF
:100DD000861B002001BDFFFFAAAA00003E0B0020D9
:100DE000C075001070B5012202432E4BD31A2F2B71
:100DF00028D8EFF30583002B2BD0EFF3108C72B6BD
:100E0000294909680029FBD0BFF35F8F254C27498A
:100E100005002D1B6D416943090D4CB224498968B9
:100E20009B00C95891421BD00021032932D81D4B89
:100E30004A00521892009B189B795BB2A3421FD0C4
:100E40000131F2E71B4B1C4AC7211C48490001F045
:100E5000B9FA1B4B184A92211848FF3101F0B2FA37
:100E6000134A92681749D150174B1A7882711C7037
:100E7000BFF35F8F0C4B00221A608CF3108870BD9B
:100E8000084B4A005518AD005D19FF26AE710F4A98
:100E9000AA80E9E70E4B084AD1210848490001F031
:100EA00091FAC046040B0020240100D0AAAA000039
:100EB00000ED00E0C87500103885001000740010C7
:100EC000F0750010CD010010861B002001BDFFFF52
:100ED000FC7500100022044B02E0044902C30132F9
:100EE000072AFAD97047C04600E400E0808080807D
:100EF00010B582B00100074C074B00930523002278
:100F00002000FFF76AFC002801DB1F23181A02B03B
:100F100010BDC0468B1B002004760010024B9C467F
:100F200061448900016070474000003410B5002B17
:100F300002DB0260436010BD024B034A03483F21BD
:100F400001F040FA38730010F4850010547300105B
:100F500070B582B0060014001D00FA229200002332
:100F60000698002103F06EFA02000B0012196B4183
:100F7000002B09DB6846FFF7D9FF009A019B32601E
:100F80007360300002B070BD01225242004BF1E7A5
:100F9000FFFFFF7F10B582B0040000F07BFD020070
:100FA0000B006846FFF7C2FF009A019B2260636056
:100FB000200002B010BD30B585B004000D0002A8BD
:100FC000FFF7E8FF029A039B00952000FFF7C0FFA0
:100FD000200005B030BD10B50400FFF737FC01005C
:100FE0002000FFF79BFFFF232371BFF35F8F10BD2E
:100FF00010B50400FFF72AFC01002000FFF78EFF68
:10100000FF23237100236371BFF35F8F10BD0000C6
:10101000034B9C46614489000160BFF35F8F7047BA
:101020004000003410B504000120FFF71DFC010052
:101030002000FFF7EDFF10BD084B5B6A994209D80D
:10104000064A926A824207D2994201D0012002E008
:10105000002000E0002070470120FCE70040054030
:1010600010B500290AD003681B7B8B4206D3806829
:10107000054B9C4661440901401810BD034B044ACE
:1010800004483C2101F09EF9FFFFFF0FC0760010DD
:10109000DC860010E4760010F8B504001700FFF7B6
:1010A000DFFF0668456839002000FFF7D9FF0268B6
:1010B00043680120AB4201D802D00020C0B2F8BD85
:1010C000B242FBD8F9E7000010B5002B02DB02604A
:1010D000436010BD024B034A03483F2101F072F9FF
:1010E00038730010A88600105473001010B582B039
:1010F00004000498059912184B41002B09DB68463F
:10110000FFF7E2FF009A019B22606360200002B0BB
:1011100010BD01225242014BF1E7C046FFFFFF7FA5
:1011200010B5002908D0037B8B4205D300684B0023
:101130005B18033BC01810BD024B034A03486821EB
:1011400001F040F92C7700108486001048770010D9
:1011500010B5437B8B4201D1012010BDFFF7E0FFAA
:101160008378002B01D10020F7E70120F5E770B567
:101170000400857B002D01D1280070BD2900FFF7F8
:10118000CFFF4378A373002B00D1E3730023837058
:1011900043700370F0E70000F8B506000C0015007E
:1011A000FFF7BEFF0700002C0DD0002D11D0AC4280
:1011B00015D029003000FFF7B3FF84703B78002B77
:1011C00013D13D70F8BD0A4B0A4A0B486F2101F05C
:1011D000F9F80A4B074A0848702101F0F3F8084B68
:1011E000044A0548712101F0EDF843703D70E9E7CC
:1011F000A47700106086001048770010B0770010C8
:10120000BC77001070B506000D001400002914D042
:10121000002A14D0436880689847002806D022002E
:1012200029003000FFF7B8FF280007E02A0021005E
:101230003000FFF7B1FF200000E0100070BD080093
:10124000FCE7000070B504000D1E0CD0FFF768FF2E
:101250000023837043700370617B2A002000FFF736
:10126000D1FF607370BD034B034A0448A52101F010
:10127000A9F8C046D4770010748600104877001093
:1012800070B504000D1E0FD0FFF762FF00280BD1D0
:10129000E17B00290ED1A37B002B03D1E37B002B44
:1012A0000DD1A573E57370BD084B094A0948F621B5
:1012B00001F088F82000FFF733FF4570EBE7064B9D
:1012C000034A0448FB2101F07DF8C046D87700109E
:1012D0005086001048770010FC77001010B50029E8
:1012E00007D003681B7B8B4203D3C06801394018C9
:1012F00010BD034B034A0448412101F063F8C04686
:10130000C07600103C860010E476001070B5050031
:101310000C00080000F09AFC0949200000F0DAFBFC
:10132000FFF794FA074B9C466044800068602C7578
:10133000D0231B061B786B75034BA400E55070BDD2
:101340005914001040000034341700200A4B1A686A
:10135000EFF3108172B61368002BFCD0BFF35F8FE0
:10136000054B1B68BFF35F8F00221A6081F3108862
:1013700040BF0020002170475019002010B582B0F6
:10138000040000F087FB02000B006846FFF79CFE9C
:10139000009A019B22606360200002B010BD70B50E
:1013A00084B0040016001D0002A8FFF7E7FF029AB0
:1013B000039B009601952000FFF798FE200004B0E3
:1013C00070BD0000F0B583B0070001921D000AABAC
:1013D0001C780BAB1E78002C0BD000682100FFF7A7
:1013E000B7FE002809D0194B194A1A48672100F0A6
:1013F000E9FF0068FFF7BBFE0400002C02D12000CB
:1014000003B0F0BD21003800FFF72AFE019B036006
:101410004560089B8360099BC36038682100FFF723
:1014200011FFA042EBD1387D019A2B0000F09AFB0E
:10143000051E01D0002E04D00C9B002BDFD01D70A8
:10144000DDE73868210000F047FDF5E7107800106F
:1014500090860010E4760010F0B5DE4657464E4602
:101460004546E0B58FB00B900021794B8200D458EF
:10147000894683E029002000FFF7F2FD80460268DC
:101480004368921BBB41002B09DD43461A685B6829
:101490000B9800F067FB0023984600268AE0002B9B
:1014A00001D1002AF1D10021584600F00BFD0700C0
:1014B000A84215D143461A685B68089209934346CF
:1014C0009E68DB689846002E10D029002000FFF7A8
:1014D00005FF037899461B021F432761002069E03E
:1014E0005C4B5D4A5D488E2100F06CFF5C4B5A4AB4
:1014F0005A48922100F066FF2369002B00D177E063
:10150000BB4219D106980799002342428B410092B1
:101510000193089A099B0CA8FFF7E8FD0C9A0D9B14
:1015200000210491013103910295414601910096F9
:101530002000FFF747FF16E04A4B474A4748A121E2
:1015400000F040FF069A079B002B01D1002A52D1E0
:1015500020682900FFF794FE29002000FFF7BEFE57
:10156000037801330370002323616268BFF35F8F48
:1015700013608AF310880120002861D00CA8FFF7BF
:10158000FDFE0C9E0D9F00220023089209936268C5
:10159000EFF3108A72B61368002BFCD0BFF35F8F95
:1015A00023689B465D7B002D00D063E700239846AF
:1015B000002600206368BFF35F8F00221A608AF361
:1015C0001088002ED8D04B461F022F4341463800CA
:1015D000B047069007916268EFF3108A72B61368FD
:1015E000002BFCD0BFF35F8F079B002B00DA83E753
:1015F000079B002BA6DD2369002BA9D0BB4219D184
:101600000CA8FFF7BBFE0C9A0D9B0698079900905B
:1016100001910CA8FFF76AFD0C9A0D9B0021049123
:101620000131039102954146019100962000FFF798
:10163000C9FE98E70B4B084A0848A42100F0C2FEF7
:101640000FB0F0BCBB46B246A946A046F0BDC046AE
:101650003417002038780010C0860010E47600109F
:10166000507800105C78001010B50C4B5B68002BB4
:1016700004D00B480A21FFF751FC10BD074C094A62
:1016800020682300102100F088FB032000F0F6F909
:1016900003212000FFF73AFEEBE7C0464C0B002089
:1016A000501900209910001010B5064B5B68002BF4
:1016B00001D0044810BD044B044A05485E2100F0E7
:1016C00081FEC0464C0B0020987800102486001044
:1016D000E4760010F0B5DE4657464E464546E0B586
:1016E0008DB0060090461F00169B9A46179B9946A0
:1016F00018AB1B780793272302AA94466344002261
:101700001A7021E001003000FFF7E8FD00783CE0AE
:101710000698002B5CD0079B002B59D04946D04738
:1017200004000D0003000B4359D0002940DB08A83A
:10173000FFF724FE089A099B0094019508A8FFF77B
:10174000D5FC089B9846099F7268EFF3108B72B620
:10175000136859424B41D9B20691002BF8D1BFF31F
:101760005F8F273302AA94466344049300230393B4
:1017700002934B4601935346009342463B00300090
:10178000FFF720FE0400051EBCD17368BFF35F8F16
:10179000002119608BF31088002D17D0272302AA8F
:1017A000944663441B78002BB2D100022043B0E77B
:1017B00000236242AB410092019342463B0008A8DD
:1017C000FFF794FC089B9846099FBDE70120404223
:1017D0000DB0F0BCBB46B246A946A046F0BD069887
:1017E000F6E7F0B5C64600B584B005008846160099
:1017F0001F000AAB1C78FFF757FF02940197009671
:101800002A004346FFF766FF04B080BCB846F0BD2F
:10181000F0B5C64600B505000C1E42D04268EFF395
:10182000108772B61368002BFCD0BFF35F8FE6B24F
:101830002B68984631001800FFF78AFC00282AD050
:101840002B69A34213D0240AE4B231002800FFF729
:1018500045FD0378A34211D000206B68BFF35F8F72
:1018600000221A6087F3108880BCB846F0BD0E4B8A
:101870000E4A2C210E48FF3100F0A4FD31004046F5
:1018800000F02AFB0028E8D10A4B084A99210848B1
:10189000490000F097FD2B69A342DED100232B61A4
:1018A000DBE70020E0E7C046BC7800100C860010A3
:1018B000E4760010E078001010B50400FFF7F4FEA5
:1018C0002100FFF7A5FF10BD407D704730B587B000
:1018D00004000D00EFF30583002B20D106225242B5
:1018E000D31712196B418B4202D803D1824201D91E
:1018F0000022002304A8FFF7E7FB02A8FFF73EFD44
:1019000002980399049A059B121A8B41002B0BDC59
:1019100008D02000290000F0C9F807B030BD1448F5
:1019200000F0E8FD002AF4D0124A0498059900233B
:101930000093FFF756FF002813DAEAE70E4B1A6808
:10194000EFF3108172B61368002BFCD0BFF35F8FEA
:10195000094B1B68BFF35F8F00221A6081F3108868
:1019600020BF04980599FFF767FB0028E6D0D0E771
:10197000E47800104D1300105019002000B583B01A
:1019800002000B006846FFF70AFD00980199FFF777
:101990009DFF03B000BD10B5FA2292000023002184
:1019A00002F050FDFFF7EAFF10BD000030B583B034
:1019B00005000C00EFF30583002B0FD10B4A002329
:1019C0000093FFF70EFF00280BDD20BFFFF774FF29
:1019D00028002100FFF730FB03B030BDFFF72CFBE0
:1019E000FAE728002100FFF727FBF5E74D13001069
:1019F00070B5EFF305801038EFF3108C72B6194B09
:101A00001B68002BFBD0BFF35F8F012213008340C4
:101A100015494B6315490B60154909780C00C44002
:101A2000224213D0104A546A124A8500AA5894429E
:101A300005D3114AAA580E4C9943217007E00A4A6F
:101A4000031D9B0099589950002200E00022BFF32B
:101A50005F8F044B002119608CF31088002A00D09E
:101A6000904770BD280100D0004005403C70054003
:101A70008A1B0020601B00205411002010B50100BB
:101A8000024A034B1800FEF78FFE10BD3479001098
:101A9000851B0020044B5B6A034A906A1900536A55
:101AA0009942F9D17047C04600400540084B5B6A37
:101AB00001E0074B5B6A8B42FBD301E0044B5B6A9E
:101AC0008B4203D1024B9B6A8342F7D37047C046D7
:101AD0000040054070B504000E00EFF3108572B6AB
:101AE0001B4B1B68002BFBD0BFF35F8F002E1CD05D
:101AF0002000FEF767FF174B83420BD01900200030
:101B0000FEF77AFF01212000FEF74CFF0123A340DE
:101B1000114A1360114BA400E650BFF35F8F0C4BCA
:101B200000221A6085F3108870BD0C4BA2000021C2
:101B3000D1500122A2400A490B7893430B7005490A
:101B40002000FFF78BF800212000FEF72BFFE4E7D1
:101B5000280100D0F1190010386005405411002010
:101B60008A1B0020F0B5DE4600B584B004001500E5
:101B700001921E000293FFF78DFF03958E4202D85B
:101B80004ED185424CD9EFF3108B72B6274B1B68B0
:101B9000002BFBD0BFF35F8F254A17780125A540A6
:101BA000EBB23B431370234B5D63221D92000199FE
:101BB000D150214AA100029888501B6A2B4212D1B1
:101BC0001C4B1B6C2B4208D00020BFF35F8F174BC0
:101BD00000221A608BF3108823E0184B184A19482A
:101BE000C52100F0EFFBFFF755FF8E4214D802D15C
:101BF000039B834210D80E4B1B78BB420ED00D4B7B
:101C00001D625D631F222240012393400E4A136030
:101C1000074B1F700120D8E70020D6E70120D4E74A
:101C2000012004B080BCBB46F0BDC046280100D0F6
:101C30008A1B002000400540601B002058790010DE
:101C4000E88600107C79001080E200E0EFF3108C51
:101C500072B60B4B1B68002BFBD0BFF35F8F0123C9
:101C60008340084A136208490A789A430A70BFF30E
:101C70005F8F034B00221A608CF310887047C046B8
:101C8000280100D0004005408A1B002010B5002923
:101C900008D0037B8B4205D300684B005B18033BE5
:101CA000C01810BD024B034A0348682100F08AFBAC
:101CB0002C7700104487001048770010F8B5060014
:101CC0000C001500FFF7E2FF0700002C0DD0002DDF
:101CD00011D0AC4215D029003000FFF7D7FF847037
:101CE0003B78002B13D13D70F8BD0A4B0A4A0B48D4
:101CF0006F2100F067FB0A4B074A0848702100F08B
:101D000061FB084B044A0548712100F05BFB4370FE
:101D10003D70E9E7A4770010308700104877001085
:101D2000B0770010BC77001070B506000D001400ED
:101D3000002914D0002A14D04368806898470028EE
:101D400006D0220029003000FFF7B8FF280007E086
:101D50002A0021003000FFF7B1FF200000E0100052
:101D600070BD0800FCE770B5050000234373013324
:101D70008373037BC373012406E021002800FFF76F
:101D800085FF0134E4B24470297BA142F5D82800D4
:101D9000FFF77CFF0023437070BD10B501734260F4
:101DA0008360FFF7E0FF10BDF0B5C64600B5050043
:101DB0000C1E03D1200080BCB846F0BDFFF766FFC3
:101DC0004678002EF6D031002800FFF75FFF4778F5
:101DD00000239846437021002800FFF757FF434631
:101DE0004370320021002800FFF79EFF04003900F5
:101DF0002800FFF7D9FF020021002800FFF794FF19
:101E00000400D7E7F0B5C64600B504000D00170082
:101E1000002927D0FFF73AFF4378002B28D1837899
:101E2000002B2BD101782000FFF7BEFF0600804673
:101E3000002F0AD0E17B002926D1A37B002B03D100
:101E4000E37B002B25D1A573E5734346002B26D1F8
:101E500029002000FFF71AFF00234370300080BCE8
:101E6000B846F0BD114B124A1248382100F0AAFAC8
:101E7000114B0F4A0F483A2100F0A4FA0F4B0C4ABD
:101E80000C483B2100F09EFA2000FFF7FFFE457052
:101E9000D3E70B4B064A0748422100F093FA310082
:101EA0002000FFF7F3FE00238370D1E7D079001004
:101EB0001C870010D8790010247A00104C7A00108A
:101EC000FC77001070B504000A00457B2900FFF77D
:101ED00099FF6073280070BD70B506000C1E40D0DD
:101EE000437B8B4207D0FFF7D1FE050081780029A4
:101EF00006D1002036E00121FFF7E4FF012031E0A8
:101F00003000FFF7C3FE0178A1420DD03000FFF78B
:101F1000BDFE4178A1420AD00029F7D1124B134AE5
:101F200013486B3100F04EFA6B78037001E06B7868
:101F300043700023AB706B70012221003000FFF76B
:101F400061FF0200717B814205D03000FFF7ECFE9B
:101F50007073012006E0074B044A0548712100F028
:101F600031FA002070BDC046FC75001004870010D7
:101F7000D8790010707A0010F8B5DE4657464E4604
:101F80004546E0B506000F0015000A9A934250D36B
:101F90001A0E92461B0298460A9A00234046514662
:101FA00001F050FC81467400A419A4002F4B9C46FC
:101FB00064446368834200D26060331FDBB29B4697
:101FC000012B3CD9C0239B012343802212011A60BC
:101FD000274BB200D158002907D0586901F0F4FB13
:101FE000013043001B18033BFDD26D0123685D40A7
:101FF000E0222A4080235B0123431A605A46012ACB
:1020000028D980239B012343802212011A604B466A
:1020100063604A4600234046514601F013FC144BCE
:10202000B60098510120F0BCBB46B246A946A04676
:10203000F8BD104B104A1148332100F0C3F9012FAD
:10204000C0D1C0239B01234303221A60A368DB078E
:10205000FCD5CAE72168794003220A401A60A368C8
:102060000125BD401D42FAD0CBE7C04600800040AC
:1020700070120020907A001050870010A47A00108F
:1020800030B583B00C2000F011F9FEF76DFB00288D
:102090000DD0002304E02E4A99002E4888500133C9
:1020A000092BF8D92A4B2C4A5A6203B030BD2B4B6E
:1020B00000229A6700F06CF9294B01221A60274B25
:1020C0005B6C012BFBD1274B03221A60234B9B6BCC
:1020D000012BFBD1013300930433234A0121234810
:1020E00000F054F805230093214A0121214800F013
:1020F0004DF8214B0093002202210420FFF73CFF02
:102100001E4D00952B00002201210520FFF734FF12
:10211000104C00942300002200210720FFF72CFF21
:1021200000942300002200210820FFF725FF0A4B1E
:1021300000932300002200210920FFF71DFF0095D6
:102140002B00002200210620FFF716FFADE7C04656
:1021500070120020006CDC021BB700000080004001
:102160003CB0004030B00040002F68590080024071
:10217000008C864700C00240001BB700405973071F
:10218000014B8000C058704770120020F0B5C64661
:1021900000B504000E0017001D00374801F014FBC5
:1021A0008046364BFA18364B9A4239D8010038002F
:1021B00001F00AFB0200103A98235B009A4235D8DE
:1021C0006B1E062B38D8069B013B062B34D83F09E3
:1021D000474537D32D04069B1B031D432368002B63
:1021E00036DB284B9C4244D080235B01264A136097
:1021F000264A1360264A926819009143FAD1266054
:10220000A060221DC0239B01134321221A60226873
:10221000002AFCDAE56008221A6080BCB846F0BDEE
:102220001C4B1D4A1D48112100F0CCF81C4B1A4ACA
:102230001A48192100F0C6F81A4B174A17481C21F2
:1022400000F0C0F8184B144A1448232100F0BAF8E3
:1022500022683F231340B342C3D1A3681B051B0D63
:102260008342BED1E368EE22D2021340AB42B8D122
:10227000D3E780239B01B9E7001BB70080E84BD36D
:1022800080F8A93200C0024000E0004000F00040A9
:1022900000C00040F87A001060870010587B0010E2
:1022A000A87B0010C47B0010107C001080239B00D2
:1022B0000343014AD362704700800540024B1A680D
:1022C000024B5A607047C0460C1700200080054042
:1022D00010B5174B8022D2051A60164B164A1A60A9
:1022E00000290AD0154BE022D2041A60002809D137
:1022F000124B802212061A6010BD0D4BE022D20450
:102300001A60F3E743011B1A9B00181800010C4BDD
:10231000186080235B04984202D3094B094A1A6073
:10232000FFF7CCFF054B8022D2051A60E4E7C046D8
:1023300000B0054008200140FCFF010000A005405E
:102340000C170020FFFFFF0010B5030010000C4A1F
:102350008024E4051460002B0DD001221343094AA8
:10236000094CD461094C5C401462516293620021B3
:10237000FFF7AEFF10BD034B0022DA61F7E7C0465E
:1023800000B0054000800540D3C007B02D3FF84F96
:10239000064BAA2212011A602F22DA60044B054A6A
:1023A0001A60024B5B68002BFBDA7047004002406A
:1023B0000060024000B0FA0000BEFDE710B5FFF774
:1023C000FBFF000030B583B00D001900002A0BD0D0
:1023D000074B084C019200932B000200200002F0F2
:1023E00081FA0120FFF7E8FF034B1A00F1E7C0462E
:1023F0002C7C00103C7C0010387C001070B52B4BFE
:102400002B4A1A602B4B2C4A1A602C4B9A682A4B89
:102410009343FAD12A4C01E008CC9847294B9C42BF
:10242000FAD3FFF72DFE234B274A1A60234B9B68F4
:10243000DB43DB01FAD1254B40229A675A671A67C2
:10244000DA66234C09E0234B234A24488721FFF70F
:10245000B9FF2000FEF7BFFD0834214B9C4209D292
:102460002368002BF5D0012BEDD12000FEF7C0FD35
:102470000834F2E71B4DA9681B4CC022200002F073
:10248000A1F8AC60EFF30583002B00D000BEFEF78F
:10249000CDF9FEF71FFDFFF7E7F8144C01E008CC7B
:1024A0009847134B9C42FAD370BDC04600E00040F1
:1024B000BFCDFBFE00F00040FE7F3C0000C00040AE
:1024C000F00B0020000C0020FFFFFF0100F0014096
:1024D000E80B00206C7C00106C8700108C7C0010D6
:1024E000F00B002000ED00E000000020000C0020B8
:1024F000080C00200FB400B583B0084802F0C2F900
:10250000049B002B07D005A90191180002F0CAF91D
:10251000034802F0B7F90120FFF74EFFE07C0010FE
:10252000F07C00109A4200D288547047704710B572
:10253000002802D00B684968984710BD01000020B0
:1025400007E083001B185B00501C08601078C0185F
:1025500030380A681378303BDBB2092BF1D9704769
:10256000F0B5DE4657464E464546E0B583B0934645
:102570001F000C9B9A460D9C0E9B99460F9B9B0738
:1025800003D0B8460F00060022E00192A346884619
:102590004E46B9460700B44207D2551C4B46414649
:1025A0002020B84701342A00F5E73D004F465C463D
:1025B000019B9B46B1464646B84637002E0007E0D1
:1025C000013C551C5346185D43463900B0472A006C
:1025D000002CF5D135003E0047460F9B9B0707D4E2
:1025E000100003B0F0BCBB46B246A946A046F0BD01
:1025F000B0464E46B9462F005D46531BB342EFD25C
:10260000541C4B4641462020B8472200F5E7F0B560
:10261000CE46474680B585B0944698460C9D0D9CA5
:102620000EAB1B789946109A119B129EB7071CD4CB
:10263000002B0CD0F7070AD54F46002F02D10C37DC
:10264000374204D0013B02E030272F550134944239
:1026500001D21F2CF8D9F70707D59C4205D21F2CB1
:1026600003D830272F550134F5E7F70612D5770543
:1026700005D4002C03D0944221D09C421FD00F9A45
:10268000102A32D00F9A022A37D01F2C0AD83022B3
:102690002A5501341F2C05D84A46002A33D02D2252
:1026A0002A550134039602930194009543466246ED
:1026B000FFF756FF05B0C0BCB946B046F0BD621E7C
:1026C000012C10D00F9F102F0BD014000F9A102A3E
:1026D000D8D1B206D6D51F2CD4D858222A550134C9
:1026E000D3E7023CCBE71400C9E7B206EED41F2CB7
:1026F000ECD878222A550134C7E71F2CD2D8603293
:102700002A550134C1E7720703D52B222A5501341B
:10271000C8E73207C6D520222A550134C2E7F0B5F2
:10272000DE4657464E464546E0B593B081468A465A
:10273000089209931CAB10CB1B789B461E9D219BD6
:102740009846002C03D1102342469A43904680239A
:10275000DB0046461E4042461A4212D0002C22D0D0
:1027600000260EE03033D9B2771C0AAB9955290008
:10277000200001F029F8AC4216D31F2F14D83E00D8
:1027800004002900200001F01FF8CBB2092BE9D981
:102790004246920605D54121C918C9B20A39C9B2C3
:1027A000E2E76121F8E7270043460693209B059363
:1027B0001F9B049303955B46029301970AAB00931A
:1027C000099B089A51464846FFF721FF13B0F0BC19
:1027D000BB46B246A946A046F0BDF0B5DE46574618
:1027E0004E464546E0B597B00A900B910C929A463A
:1027F000209B9946219F22AA13789B46249B0993EC
:10280000259C289B98464A463A4302D1103293436E
:1028100098468022D20045461540434613420AD0CE
:102820004A463A4341D000252E0053460D934D466B
:10283000099B9A461BE02E0053460D934D46099B7B
:102840009A4614E03033DAB2731C99460EAB9A55AF
:10285000524623002800390000F0F4FFBC4226D87D
:1028600019D04B461F2B1CD84E4605000F00524670
:1028700023002800390000F0E5FFD3B2092BE1D98D
:102880004246920605D54122D218D2B20A3AD2B2B5
:10289000DAE76122F8E7AA45E3D94E460D9B9A464E
:1028A00008E04E460D9B9A4604E0002602E04E46A4
:1028B0000D9B9A4643460693279B0593269B0493BC
:1028C000099B03935B46029301960EAB009353461C
:1028D0000C9A0B990A98FFF79AFE17B0F0BCBB460A
:1028E000B246A946A046F0BDF0B5DE4657464E4674
:1028F0004546E0B591B0804689460C929A461A9CAE
:102900001B9D22002B002000290001F026FA002840
:1029100000D0ECE001225242D44B2000290001F00B
:1029200017FA002800D0E2E001225242D04B2000EA
:10293000290001F0F7F9002800D0D8E00022002398
:102940002000290001F0EEF9002800D0E4E0069410
:1029500007958023DB001E9A1A400D921E9A1A4298
:1029600001D106231C930698079902000B000892D8
:10297000099303000A00024300D1D9E0080D400585
:10298000400DBC4EB44660440A03120B1E00BA4B05
:1029900013431F0001F0F4F9B84AB94B01F07FF975
:1029A000B84AB94B01F054F9089009910022B74B8D
:1029B0003000390001F043F9B54AB64B01F06FF928
:1029C00002000B000898099901F042F901F0F0F9B2
:1029D000834601F0D5F906000F00AF4AAF4B01F076
:1029E0005EF90022AE4B01F033F901F0E1F90890F5
:1029F000AC4AAD4B3000390001F051F906000F0030
:102A0000089801F0BDF9A94AA94B01F048F9020064
:102A10000B003000390001F012F906000F0002002F
:102A20000B0001F03CF90A900B91089BA14A9446D7
:102A3000634400210022089109921B050993002399
:102A4000089332003B003000390001F001F90E908C
:102A50000F9132003B0000208021C90501F0EFF802
:102A600006000F000022944B0A980B9901F0F9F828
:102A70000022924B01F0ECF802000B000A980B992F
:102A800001F0EFF800228E4B01F0E2F802000B009B
:102A90000A980B9901F0E5F802000B0030003900AC
:102AA00001F0D6F802000B000E980F9901F0D9F84A
:102AB0000022714B01F0CCF8089A099B01F0EFF865
:102AC00006000F0008960997069A079B01F040F947
:102AD00000282FD001235B429C46E3440022774B21
:102AE0003000390001F0BDF80890099122E01E9BEA
:102AF00004931D9B03931C9B0293009401955346E2
:102B00000C9A4946404600F0FFF811B0F0BCBB46B5
:102B1000B246A946A046F0BD0021002206910792C8
:102B2000069480231B069C46AC446346079310E73B
:102B300000239B465B466333C62B20D804261E9B8E
:102B40001B0528D5089A099B190011430FD05D4A2F
:102B50005D4B0698079901F0F3F800287AD000221F
:102B60005A4B0698079901F0DDF8002872D01C9B9B
:102B70005B4506DD5A469B1A013B1C9303E0052684
:102B8000DDE700231C938023DB001E9A1A431E926C
:102B9000002600239B461D9B9E4265D29F1B02235D
:102BA0001E9A1A400A921E9A134202D0002E00D09A
:102BB00000275B46002B07D0089A099B06980799C7
:102BC00001F04FF806900791002200232000290011
:102BD00001F0A8F8002800D07CE03D4B1E9A13407D
:102BE000049303971C9B0293069B079C00930194FC
:102BF00053460C9A4946404600F086F8002E00D114
:102C000083E71E9B9B0671D54525441C5346020055
:102C100049462800C0475A46D317D2185A400523C0
:102C20000593013E0496002303930A3302935B4607
:102C3000DB0F019300925346220049464046FFF7BE
:102C40006EFD0A9B002B00D15FE7020047460C9EF9
:102C50001D9D53E01C9B002B9DD00D9B002B9AD0FB
:102C60001C9B013B1C9396E7002798E7FFFFEF7F33
:102C7000FFFFEFFF01FCFFFF0000F03FFB799F50DB
:102C80001344D33FB3C8608B288AC63F0000F83F87
:102C900061436F63A787D23F71A379094F930A40BD
:102CA0000000E03F1655B5BBB16B0240EF39FAFEAC
:102CB000422EE63FFF03000000002C4000002440AD
:102CC000000018402D431CEBE2361A3F80842E4151
:102CD000FFF7FFFF069C079D2200290080200006C9
:102CE000844661440B000692079376E765258CE7DE
:102CF000541C534649462020B8472200931BAB4240
:102D0000F6D3100001E7C046F0B5DE4657464E4602
:102D10004546E0B595B00690079193469946209FA9
:102D20001E9A1F9B1000190001F017F8002831D1DE
:102D300001225242BF4B1E981F9900F0F3FF00285A
:102D400037D101225242BC4B1E981F9901F000F866
:102D500000283DD10022B94B1E981F9900F0F8FFC2
:102D6000002850D10022B64B1E981F9900F0DAFFC0
:102D7000002848D1002200231E981F9900F0D2FF9E
:102D8000002850D100239846229B5B0500D4B6E072
:102D9000002458E0229B0393219B02930323019379
:102DA000A84B00934B465A4607990698FFF7D8FB65
:102DB0000EE1229B0393219B029304230193A24BD8
:102DC00000934B465A4607990698FFF7C9FBFFE068
:102DD0000423229A1A4022990B4210D09B4B002ABE
:102DE0000FD004222299039121990291019200931C
:102DF0004B465A4607990698FFF7B2FBE8E0944B1A
:102E0000EDE70322EEE7229B0493219B03930297B5
:102E10001E9B1F9C009301944B465A4607990698A7
:102E2000FFF762FDD4E01E9A1F9B0020002100F0F6
:102E300006FF1E901F9101239846A5E70CAB302298
:102E40001A55013F01341F2C01D8092FF6D81E98BE
:102E50001F9900F0ADFF050000F092FF02000B008B
:102E60001E981F9900F0EBFE7A4BFA009B181A6827
:102E70005B680A920B9300F012FF0890099100F032
:102E8000BBFF060000F078FF02000B0008980999CC
:102E900000F0D5FE0890099100226F4B00F058FF1A
:102EA00000282ED00136300000F066FF02000B0033
:102EB0000A980B9900F03CFF002801D0013500264C
:102EC000002F2CD1280000F05BFF02000B001E98A1
:102ED0001F9900F0B4FE06000F0000225E4B00F0C8
:102EE00021FF002846D100225B4B3000390000F062
:102EF0002FFF00283ED1EB073CD501353AE00627ED
:102F000046E70022544B0898099900F00BFF00286F
:102F1000D6D1002E01D0F307D2D50136D0E7AA468C
:102F20001F2C11D8013F0A21300000F04DFC651C18
:102F300030310CAB19550A21300000F045FC092E48
:102F40000ED906002C00EBE755461F2C0CD87B1E33
:102F5000002F09D00CAA302111551F000134F4E7CD
:102F60002B0055461C00F0E71F2C03D80CAB2E227B
:102F70001A5501341F2C10D80A21280000F0FCFB40
:102F8000661C30310CAB19550A21280000F0F4FB07
:102F9000051E01D03400EDE734000323229A1340CC
:102FA000012B1CD01F2C06D84346002B32D00CAB73
:102FB0002D221A550134229B0393219B02930194E5
:102FC0000CAB00934B465A4607990698FFF7C8FA90
:102FD00015B0F0BCBB46B246A946A046F0BD219B49
:102FE000002B13D04346002B02D10C3313420FD0D9
:102FF000219B013B2193190003E00CAB30221A55B1
:1030000001348C42CED21F2CF7D9CBE72199F8E7B7
:103010002199F6E7229B5B0704D50CAB2B221A55AE
:103020000134C8E7229B1B07C5D50CAB20221A55DB
:103030000134C0E7FFFFEFFFFFFFEF7F65CDCD411C
:1030400065CDCDC1007D0010047D0010F47C001022
:10305000FC7C0010188900100000E03FF0B5DE464F
:1030600057464E464546E0B593B08246884693465D
:103070001193002900D10DE300255646119B1878C5
:10308000002800D109E3252809D06C1C5B462A00E2
:103090004146B047119B013311932500EEE7013300
:1030A0001193002720E001231F43013211920124D4
:1030B00018E002231F4301321192012412E004237D
:1030C0001F430132119201240CE008231F430132F7
:1030D0001192012406E010231F43013211920124B2
:1030E00000E00024002C09D0119A1378203BD9B2BB
:1030F0001029F6D88B00C849CB589F46119B1A78E7
:103100001300303BDBB2092B10D92A2A13D00B94C1
:10311000119B1A782E2A1ED0119A1378683BD9B2C7
:10312000122959D88B00BD49CB589F4611A8FFF7EB
:1031300005FA0B90ECE71C9B1A1D1C921B68002BD8
:1031400004DB0B93119B01331193E1E70222174338
:103150005B420B93F6E78022D20017435A1C119270
:103160005A781300303BDBB2092B0BD92A2AD3D172
:103170001C9B1A1D1C921C68002C08DB119B013340
:103180001193C9E711A8FFF7D9F90400C4E7002497
:10319000F4E780235B003B43511C119151786C296B
:1031A00001D01F0018E0C0239B001F430232119280
:1031B00012E080233B43511C11915178682901D0C2
:1031C0001F0009E0C0231F430232119204E0802354
:1031D0005B001F4301321192119B1878672818D8A1
:1031E000252800D24CE20300253BDAB2422A00D95E
:1031F00046E293008A4AD3589F4680239B001F4390
:1032000001321192E8E780235B001F4301321192E3
:10321000E2E7782800D933E2692800D230E20200E0
:10322000693AD2B2012393407E4A134211D11A0661
:1032300000D500E25B0500D422E21C9B1A1D1C9203
:103240001B689A46002C00D0B2E10122524253463C
:103250008EE16F280ED006D858283DD0622804D1C0
:1032600002239C4608E0782839D010239F43063B70
:103270009C4601E008239C46582833D0692803D097
:10328000642801D00C2297437A0501D50122974387
:1032900069282AD0642828D0BA0500D59FE0FA050D
:1032A00000D5C1E07A0600D4D3E01C9A111D1C9110
:1032B0001168FF220A4005970B9B04930394634611
:1032C00002930023019300925B462A00414630009E
:1032D000FFF725FA050027E010239C46CCE71023D2
:1032E0009C46C9E720221743C8E7BA0520D4FA054F
:1032F00050D47A0666D51C9A111D1C911168FF22C4
:103300000A40D0171118414005970B9B0493039472
:1033100063460293D20F019200915B462A00414618
:103320003000FFF7FCF90500119B01331193A5E66E
:103330001C9A073207218A43110008311C91116839
:1033400053689946DB170C930D930C9A0D9B100054
:1033500048400E904A4653400F930E980F990C9A8E
:103360000D9B801A99410E900F9108970B9B079324
:10337000069463460493002305934B46DA0F0292AA
:10338000009001915B462A0041463000FFF725FA84
:103390000500C9E71C9A111D1C911268D01711185D
:1033A000414005970B9B0493039463460293D20F0D
:1033B000019200915B462A0041463000FFF7AFF9C9
:1033C0000500B1E73A0605D51C9A111D1C91002392
:1033D000D25E96E71C9A111D1C91126891E71C9A07
:1033E000073207218A43110008311C9108970B9B73
:1033F000079306946346049300230593029353684E
:103400001268009201935B462A0041463000FFF7A4
:10341000E4F9050088E7C0467C870010C0870010EB
:103420000C880010419000001C9A111D1C910597FA
:103430000B9B049303946346029300230193136848
:1034400000935B462A0041463000FFF768F905000B
:103450006AE73A0606D51C9A111D1C9112681204DF
:10346000120C28E71C9A111D1C91126823E74628AC
:1034700019D01C9B0733072293431A0008321C9271
:1034800004970B9A039202941A685B680092019366
:103490005B462A0041463000FFF736FC0500119BD1
:1034A00001331193EAE520231F43E2E7672801D0A7
:1034B000472802D180231B011F43452801D04728FC
:1034C00001D120231F431C9B0733072293431A007B
:1034D00008321C9204970B9A039202941A685B6854
:1034E000009201935B462A0041463000FFF7FCF949
:1034F0000500119B01331193C0E502231A003A40E5
:1035000091463B421DD001241C9B1A1D1C926F1C2E
:1035100018785B462A004146B0474B46002B14D131
:10352000119B013311933D00A8E5571C5B464146B2
:103530002020B04723003A005C1C9D42F5D81500BE
:10354000E2E701232A000B9DF6E73A00B1460B9E05
:1035500006E0571C5B4641462020C8472C003A0035
:10356000651CA642F5D817004E46D9E701330A007C
:103570001978002902D0511E002AF7D152469B1A11
:103580008022D200390011408946174202D0A3425E
:1035900000D9230002221100394010913A4209D08B
:1035A0002A00250057469A4633004E46994621E0A8
:1035B00022004CE62A004546A04606E0541C5B4625
:1035C00029002020B0473B0022005F1C0B99994244
:1035D000F4D84446A8463B00250057469A46330097
:1035E0004E46994606E01D000137541C5B46414695
:1035F000C84722003878002804D0002EF4D06B1E73
:10360000002DF0D1150053464E46109A002A03D1E2
:10361000119B0133119331E50B9F2A0006E0551CE5
:103620005B4641462020B04723002A005C1C9F4295
:10363000F5D81500ECE721233B431C9A111D1C9182
:10364000126805930823049303940833029300231C
:10365000019300925B462A0041463000FFF75FF875
:103660000500119B0133119308E56C1C5B462A0091
:1036700041462520B047119B013311932500FDE4FD
:103680006C1C5B462A004146B047119B01331193E5
:103690002500F3E40A4B9A46EEE4B2465D450DD3AD
:1036A0005B465A1E5B4641460020D047280013B0B7
:1036B000F0BCBB46B246A946A046F0BD2A00F1E7E1
:1036C0002D2500100EB430B584B0010007AC08CC35
:1036D00003940122054D009452422800FFF7BEFCDE
:1036E00004B030BC08BC03B01847C0462525001004
:1036F00000B585B0029003910121044800931300A6
:103700004A4202A9FFF7AAFC05B000BD2F25001010
:1037100001480421014B1847800B0020413700105D
:1037200010B5010018231B8814221088984710BD7B
:1037300010B5010018231B8816221088984710BD69
:10374000F0B5C64600B507000E00002501239846D7
:1037500000E00135B5420AD2AC003C192068FFF701
:10376000DFFF20600028F4D100239846F1E74046AF
:1037700080BCB846F0BD0000124A936F9B0815D27A
:103780009066D166002905D0FFE7FFE7FFE7516F9C
:10379000106F704704B580210906C21751400028F8
:1037A00000D0C84303F088FD002104BDF0B5146EBD
:1037B000556E576F166FFFF7E3FF14665566576730
:1037C0001667F0BD000000D0114A936F9B0813D21A
:1037D00010665166002905D0FFE7FFE7FFE7516F4C
:1037E000106F704704B5002801D00020C04303F0DB
:1037F00063FD002104BDC046F0B5146E556E576FD1
:10380000166FFFF7E5FF1466556657671667F0BD3C
:10381000000000D094464A4A926F9208624601D254
:1038200028E0C046F0B5464E346E756E776F366F41
:1038300000F020F89446424A1466556657671667AA
:103840006246F0BD94463E4A926F9208624601D2AB
:1038500054E0C046F0B53A4E346E756E776F366FF1
:1038600000F04CF89446364A14665566576716675A
:103870006246F0BD002B24DB11D000293EDA00B5F2
:10388000C943404200D1013100F038F8C9434042F9
:1038900000D10131DB43524200D1013300BD002A87
:1038A000EBD1002801D1002905D00020C90FC9079C
:1038B00001D1C043410800B503F0F6FC002200230B
:1038C00000BD00B500290ADBDB43524200D10133C1
:1038D00000F014F8C943404200D1013100BDC94392
:1038E000404200D10131DB43524200D1013300F0AC
:1038F00005F8DB43524200D1013300BD002923D13A
:10390000002B18D1002A0CD0BC460D4F38667A66C1
:1039100000210023FFE7FFE7FFE77A6F386F674674
:103920007047002801D00748010000B503F0BCFC37
:103930000022002300BD02000B0000200021704780
:10394000000000D0FFFFFFFF002B00D0BFE0130CF2
:1039500028D1002AE7D080B4114F39667A66FFE794
:10396000FFE730B4040C7B6F396F1B0423433B66C5
:103970007A66FFE7FFE7FFE7C04684B27B6F3D6FE3
:103980001B0423433B667A66FFE7FFE7C04600233C
:103990002C042D0C7A6F386F00196941B0BC704748
:1039A000000000D0F0B594460025140E01D112029B
:1039B0000835140F01D112010435940F01D1920082
:1039C0000235D40F01D152000135D40B0134254FFB
:1039D0007C66254C3C660E0C93B2FFE7FFE7FFE7E1
:1039E0003C6F6643360C7703BE467343DF0B5B04C4
:1039F000C01AB941130C7343DB18C91ACE086643C9
:103A0000360CB64493B273431F0F1B01C01AB94161
:103A1000130C73431F0B1B05C01AB941860D8F028F
:103A20003E436643360C092D24DB520A7243801A4A
:103A30007703460A6643360C16235B1BDE40DF40E5
:103A4000BF1964466643821B704604350633010085
:103A5000D940A840C01900D30131A24206D20023A8
:103A6000F0BD0000000000D0FFFFFFFF121B01307F
:103A7000F3D3F1E709277F1BFE406446A2B27243ED
:103A8000801A00D20139220C7243130C1204821ADC
:103A900099410B007046043513370100F940A840E6
:103AA000801900D30131002B02D1A2420AD2F0BD0D
:103AB000013000D30131121BFAD2013BF8D1A242EE
:103AC00000D2F0BD013000D30131121BF7E7F0B591
:103AD0001C0C00D080E00CB400251C0A04D11B0291
:103AE000160E3343120208351C0B04D11B01160FAE
:103AF0003343120104359C0B04D19B00960F3343D2
:103B000092000235DC0B02D192185B4101351C009A
:103B1000971864410134464F7C66464C3C660E0C57
:103B2000FFE7FFE7FFE7C0463C6F6643360C7703CD
:103B3000BE4697B27743C01B00D20139C01B00D2EA
:103B400001399FB27743C91BC91B170C77437E0409
:103B5000FF0B801BB941CE086643360C0C2D33DBBE
:103B6000B644120B1F053A431B0B97B27743C01B99
:103B700000D201399FB27743C91B170C77433E042B
:103B80003F0C801BB941860D8F023E4366432927B7
:103B90007F1BFE400C3D7746AF40BF1930BCA2B240
:103BA000ABB272437343801A9941220C7243130CD7
:103BB0001204801A994102000B000137001BA94131
:103BC000F9D2781E0021F0BD0C277F1BFE407746FE
:103BD0007F0BAF40FF19E0E700245D1C07D0144FB6
:103BE0007D663966FFE7FFE7FFE7FFE73C6F95B2C9
:103BF0009EB265436643401BB141150C1E0C6543E4
:103C0000664336042F0C3E432D04401BB1419942BC
:103C100004D202000B0020000021F0BD01D190422F
:103C2000F7D3801A994101349942F2D3F6E70000A4
:103C3000000000D0FFFFFFFF48404140484018B45B
:103C40001B4B5B68FC46019308BD04DF173F001067
:103C500018B4174B1B68FC46019308BD00DF213FD9
:103C600000109446134A926F920809D2624618B423
:103C70000F4BDB68FC46019308BD0CDFD9410010F7
:103C80000C4AF0B5146E556E576F166F6246FFF70B
:103C9000EEFF084A1466556657671667F0BD18B4FC
:103CA000034B9B68FC46019308BD08DF7D40001074
:103CB0004C170020000000D0FFB55040424050405B
:103CC00059404B40594000E0FFB5154F4C00640D82
:103CD00003D0BC4204D10C0314D80020090D0905FF
:103CE0005C00640D03D0BC4204D11C030AD800223E
:103CF0001B0D1B0501264B4009D44B4003D58B42BD
:103D000000D18242FFBD9942FCD19042FFBD0B43DE
:103D1000DB1803431343F5D0C9434918FFBD000026
:103D2000FF07000000B5FFF7CFFF804100BDC04690
:103D300000B5FFF7C9FF01D9002000BD012000BD7B
:103D400000B5FFF7B9FF01D9002000BD012000BD7B
:103D500000B5FFF7B1FF804100BD012040054A00DA
:103D6000121804D85A00121801D8002070470120F8
:103D700070470020704700000021002805D17047DF
:103D8000C1174840401AFAD0C90713B5064B1B6843
:103D900098470CBC441CA2401005120B0349091B98
:103DA00009051943114310BD4C1800201F040000E1
:103DB00010B54C00620D8023D218DB00D21A5B05CF
:103DC0007E2A10DD9E3A13DACC17090349081943FD
:103DD0005242D140640001341532202A05DAD04025
:103DE0000843604310BD002010BD0846604310BD6D
:103DF000C80FC018013810BD18B4044B5B6AFC46EC
:103E0000019308BD24DF8943001000004C170020F7
:103E100070B513231C78012C12D0012C12DC214B1D
:103E2000214A93642148FFF77BFC214B186070BD49
:103E30001C491D4A9800815001331F2BF8D9ECE72B
:103E40000023FAE71B48FFF773FC05001A48FFF749
:103E50006FFC023803789B007F2B09DD124880221B
:103E6000290000F0AFFB022C08D0022CDADCD6E7E8
:103E7000124B134A13483221FEF7A4FA124B1A8848
:103E8000B5231B029A4209D1104B1A88104B9A4253
:103E900004D1104B1A88104B9A42E6D00020FEF74E
:103EA00029FBC046DD3E00104C1700204C330000BB
:103EB0004C18002053440000534600000C7D0010B5
:103EC00068890010607D001054380000D838000068
:103ED000494600009C3800005946000007B560467E
:103EE000002800D100BE01880A0A0230DF2AFAD178
:103EF000C9B2820804D3028840880004104300E05D
:103F00000068024A5050039007BD00004C17002083
:103F10000FB403BC0CBCF0B50124E407634000E01F
:103F2000F0B50C0DCF0F661E3605891B640503D353
:103F3000C943404200D30131640D03D0661CF60A28
:103F400007D0E41B00207F00791C89078912803C80
:103F500024031D0DDF0F6E1E36059B1B6D0503D35D
:103F6000DB43524200D301336D0D03D06E1CF60AC1
:103F700007D0ED1B00227F007B1C9B079B12803D1E
:103F80002D032F1B661B58D4A446202E46DA20375B
:103F90001400BC401D00BD40F24033412A4380184C
:103FA0005941CB0F05D0C943C04300226442504160
:103FB000514162464D0D28D10D0D07D100281FD06B
:103FC000241940414941013A0D0DF9D0640006D34E
:103FD000013000D30131002C01D140084000013AEA
:103FE0000BD4941CE40A04D112051144DB071944D4
:103FF000F0BDD907204B194300E0D9070020F0BDE0
:104000000029DDD1002CDBD1F0BD0132C60740080C
:10401000CD0728434908002EE1D0D9E73C2E29DA04
:10402000203E40371400BC4000D00124F24014432D
:104030001A00BB401C43D317ACE7AC46202F08DA6C
:1040400020360400B4400D00B540F8403941284303
:10405000A5E73C2F0CDA203F40360400B44000D0E6
:104060000124F84004430800B1400C43C117EAE7BB
:1040700010001900002494E70000F07FF0B50C0D4B
:10408000661E3605891BE60A6405640D02D0651CB0
:10409000ED0A04D0002001210905803C2403A44638
:1040A0001C0D671E3F05DB1BE70A6405640D02D08B
:1040B000651CED0A04D0002201231B05803C24036B
:1040C0007740644497B484B296B27443070C7E433D
:1040D000150C6F4380B26843361802D301200004E8
:1040E0003F183004350C00197D41844688B29AB2DD
:1040F00050430C0C62431F0C7C438EB27E439219DA
:1041000002D301263604A4191604170C3618674189
:1041100001BC81B29AB25143040C62431B0C5C4354
:1041200080B25843121802D301200004241810044E
:10413000130C401863412D185E410020474106BC16
:1041400088B293B258430C0C6343120C544389B2A7
:1041500051435B1802D301210904641819041A0C95
:10416000091862416D1856410020474118BCF902F8
:10417000720D1143F0026A0D1043ED020A0D03D1D6
:104180006D1940414941013B124E9B1B7600B342E1
:104190000ED26D0007D301300026714166463543CB
:1041A00001D1400840001B05C918E4072144F0BDB7
:1041B0000BDA013306D1013004D101314F0D01D0AA
:1041C0004908F2E7E1070020F0BD01363105002083
:1041D000EBE70000FF030000F0B51C0D671E3F0574
:1041E000DB1BE70A6405640D02D0661CF60A04D0E6
:1041F000002201231B05803C2403D0252D06002628
:10420000F6432E661E096E66CE0FF619B4464900B7
:104210004F0D02D07E1CF60A03D000200021403F43
:104220003F033E1BB600B444013F7F05C91B49084C
:104230002E6F013676089C02950D25437543ED13CC
:104240007543AD1301356D10F603761B0CB4CC022B
:10425000450D2C43A2B2B3B25A43270C7B43350C15
:104260006F43A4B26C431B1902D3012424043F19E9
:104270001C041D0CA4187D4124196D41009A91B2B3
:10428000ACB26143170C7C432B0C5F4392B25A4390
:10429000A41802D301221204BF182204230C5218BE
:1042A0007B41019C6C431B19520ED9010A43440106
:1042B000A01A81B2B2B2514303145A43360C73436D
:1042C00087B27743D617D21900277E4136049B194F
:1042D0001704160C7F185E417316ED18F3010026C3
:1042E00080337541A90F06D16400690AE8055B0AAD
:1042F000184309D22FE00422944480337541A90A5F
:10430000A8059B0A184326D3404149412404009A3A
:10431000019B0D005543641B4343E41A95B286B2DA
:104320007543170C7E43030C5F4392B25A43B61891
:1043300002D301221204BF183204330C52197B41FC
:1043400052429C41002C02D40022013051414008CD
:10435000CA071043490802B06246D7079210084BBB
:10436000D218084B9A4203D212058918C919F0BD18
:104370000020002A01DC3900F0BD01331905F5E702
:10438000FD030000FE070000002200B5203200F00F
:1043900004F8080000BD000000220B150AD410B577
:1043A000944600F031F81414013400DA0021CB17E0
:1043B000144C20470020002170476244343A0CD44A
:1043C0000C2A07DA04009140904052422032D44037
:1043D000214310BDD843D94310BD203207D40C4629
:1043E0009440524220321141D040204310BD080079
:1043F000C917203203D452422032104110BD180098
:10440000190010BDBB4300100A0DCC0F531E1B0535
:10441000C91A520503D3C943404200D30131520D9A
:1044200003D0531CDB0A07D0121B00206400611C60
:1044300089078912803A1203014BD21A7047000093
:10444000FF03000051434343C9188C46110C83B24B
:104450004B4310B4040C614392B280B250436243A8
:104460001C041B0C001910BC59411304120CC01879
:10447000514161447047000070B513231E782A48EB
:10448000FFF756F90500012E11D0012E09DDAB1EF4
:104490001B789B007F2B40DD24488022290000F000
:1044A00091F82348FFF73CF9224B186070BD1F4874
:1044B0005422290000F086F81F4B1A881F4B9A429D
:1044C0001CD1A7239B011A881D4B9A4216D11D4B64
:1044D0001A881D4B9A4211D11C4B1A8894239B01B8
:1044E0009A420BD11A4B1A881A4B9A4206D11A4B90
:1044F0001A681A4B9A4201D1152307E01848FDF7B4
:10450000F9FF184C094A99008C5001331F2BF8D938
:10451000144B064A1362D361B7E7134B134A14488E
:104520004221FDF74FFFC0465346000050180020BF
:104530004C3300004C180020EE290000C40F00008E
:10454000C20D0000962B0000C0B50000182B000023
:10455000CC2A000010B50000FC2C000051ED87644F
:10456000387C001075450010BC7D00107C8900105F
:10457000F07D001007B56046002800D100BE01881C
:104580000A0A0230DF2AFAD1C9B2820804D30288AB
:1045900040880004104300E00068024A5050039035
:1045A00007BD00005018002001480421014B1847A6
:1045B000900B002041370010014B1B68184700008A
:1045C000900B0020014B5B6818470000900B002007
:1045D00010B50300080011001B68984710BD0000CB
:1045E000F8B507000D001600437D002B02D0002413
:1045F00000200CE003681100280098472DE03B7D67
:1046000010E03B68154802219847601C0134B44211
:1046100014DA002CF3DD2B19013B1B780D3B5A42B9
:104620005341DBB22A5D0A2AF0D1002BEED1A04221
:10463000E7DA3B68211A28189847E2E7B04203DA24
:104640003B68311A28189847002E06DDAD19013D48
:104650002B780D3B5A4253413B75F8BDB48900108D
:1046600070B505000368002B16D00C4B1C6805E0E4
:10467000290004C92000FFF7B3FF2469002C09D0EA
:104680002368002BF9D0064B1B68002BF0D0A34207
:10469000F3D1EDE700232B6070BDC046001300206E
:1046A0000813002070B505000C000B68802B05D0A6
:1046B00023685A1C2260E418257170BD0800FFF7BA
:1046C000CFFFF5E710B5002B02DB0260436010BDA1
:1046D000024B034A03483F21FDF774FE3873001074
:1046E000B88900105473001010B582B00400FDF7B3
:1046F000D1F902000B006846FFF7E4FF009A019B26
:1047000022606360200002B010BD000070B582B06E
:10471000060014001D00FA229200002306980021D2
:10472000FFF790FE02000B0012196B41002B09DB12
:104730006846FFF7C7FF009A019B32607360300044
:1047400002B070BD01225242004BF1E7FFFFFF7F34
:1047500030B585B004000D0002A8FFF7C5FF029A2E
:10476000039B00952000FFF7D1FF200005B030BD6E
:1047700000B583B0FA2189006846FFF7E9FF009A87
:10478000019B024802F0B8FD03B000BDE80B002019
:1047900010B5024802F070FD10BDC046E80B0020C5
:1047A000F0B5CE46474680B583B006000D00904672
:1047B0001C00FFF7DDFF81466B1C05D0002C08D0E4
:1047C000194F1A4B1C6807E0300002F015FD050078
:1047D000F4E7174FF5E72469002C17D02368002B66
:1047E000F9D0144B1B68002B01D0A342F3D12A004F
:1047F00031002000B8474346002BECD06B46D91D52
:104800000A230B7001222000B847E4E74B46002B37
:1048100007D16B1E9D41E8B203B0C0BCB946B0469B
:10482000F0BDFFF7B5FFF4E7D145001000130020FD
:10483000E145001008130020094A01E010331A0076
:104840001368002B08D08342F8D1002907D10369EF
:1048500013600023036102E0002900D0106070475C
:104860000013002010B5064B1C6801E0984724692E
:10487000002C03D06368002BF8D1F8E710BDC046C8
:104880000013002070B5050002F0B6FC0400002300
:10489000012201002800FFF783FFFFF7E3FF20005C
:1048A00070BD000070B5A2B004000E00FFF760FFFD
:1048B0000500002301930A483300220001A9FEF7F6
:1048C00017FF040001A8FFF7CBFEFFF7CBFF002D79
:1048D00002D1200022B070BDFFF75AFFF9E7C046B1
:1048E000A54600100FB400B583B004A901C9019119
:1048F000FFF7D8FF03B008BC04B0184710B500F0AC
:10490000AFF910BD70470000014B00221A707047CC
:10491000871B00204B79FF2B0CD18B79002B0BD1FF
:10492000CB79012B0AD1082A0AD98A78054B1A704B
:10493000092000E0002070470020FCE70020FAE793
:104940000020F8E7871B00200120704770B50400A5
:104950000D000348FEF7E4FE0300290020009847FD
:104960005542000010B5012926D1117953791B0257
:104970000B43124909788B4201D000201DE0537887
:10498000012B03D0022B10D0002016E09178D378B1
:104990001B021943DB0506D54B0A012098407F23F3
:1049A0001940FFF7D3FF0020F9E76422002100201F
:1049B000FDF7CAFC012000E0012010BD871B00208C
:1049C0000123037000487047D089001010B50A78A1
:1049D0004B781B0213438A7812041A43CB781B06C8
:1049E00013439622D200934200D010BD002108004C
:1049F000FFF7ACFF024B1860024B19607047C046CE
:104A0000641200206812002010B5002B02DB026047
:104A1000436010BD024B034A03483F21FDF7D2FC1F
:104A200038730010048A00105473001010B582B05F
:104A30000400FDF72FF802000B006846FFF7E4FFC3
:104A4000009A019B22606360200002B010BD00004C
:104A500070B582B0060014001D00FA2292000023F7
:104A600006980021FFF7EEFC02000B0012196B41C3
:104A7000002B09DB6846FFF7C7FF009A019B3260F5
:104A80007360300002B070BD01225242004BF1E76A
:104A9000FFFFFF7F30B585B004000D0002A8FFF7CF
:104AA000C5FF029A039B00952000FFF7D1FF20006D
:104AB00005B030BD10B582B00400049805991218F5
:104AC0004B41002B09DB6846FFF79EFF009A019BD4
:104AD00022606360200002B010BD01225242014BEF
:104AE000F1E7C046FFFFFF7F10B5024B1878FBF7D8
:104AF00061FF10BD881B00200268EFF3108172B6C1
:104B00001368002BFCD0BFF35F8F4160704700003B
:104B100070B50F4B1B68002B16D00D4C2000FFF713
:104B2000EBFF0C4B00221A7021686368BFF35F8FA4
:104B30000A6083F3108800240025074B1878FBF7E0
:104B400039FF2000290070BDFA24A4000025F4E7F5
:104B50002C170020891B0020881B0020F0B587B08F
:104B6000040016001D000EAB1F7804A8FFF75EFFBF
:104B7000049A059B0096019504A8FFF79BFF049AF1
:104B8000059B02970D9901910C9900912000FCF76B
:104B9000A1FD07B0F0BDF0B5C64600B584B0050074
:104BA000884616001F000AAB1C78FCF77DFD0294B6
:104BB000019700962A004346FFF7D0FF04B080BC5F
:104BC000B846F0BD10B582B01948002102F07CFB58
:104BD000002822D1174B1B68002B26D0154C200033
:104BE000FFF78AFF144A137801214B40DBB2012101
:104BF000117021686268BFF35F8F0020086082F344
:104C00001088002B11D00D4A012300930023FA20B5
:104C100080000021FFF7BFFF07E001200021404294
:104C200001F08CF8024802F027FB02B010BDC0462C
:104C3000581B00202C170020891B0020114B00104E
:104C400010B5054B1868002804D0044B19680022E1
:104C500000F09EFD10BDC0466412002068120020C6
:104C600010B582B0D0231B061C68FCF71DFDFCF7B5
:104C70002BFEA0422CD1234B1B7801F02DFD2248A6
:104C8000FCF7A9F90120FCF733F9204C20702049EA
:104C9000FF231840FBF7B0FE20780121FBF782FECE
:104CA0000520FBF797FE041E18D01A4900220520A4
:104CB000FBF7CCFEFBF7CAFD0100174B1800FCF711
:104CC000A7F916480121FFF7B7FD200002B010BD7B
:104CD000134B144A1448B221FDF774FB134A012305
:104CE00000930023FA2080000021FFF754FFC44303
:104CF000E40F094808220021FFF75EFC002CE4D0F5
:104D0000DFE7C046108C0010581B0020881B0020D5
:104D1000C54B0010E94A00102C170020A00B002002
:104D2000C0750010F4890010847E0010114B001033
:104D300010B5002001F0FAF910BD000030B583B0C5
:104D400004000D00FFF7F4FF002830D0002001F030
:104D500009FA00282ED0FA2189006846FFF79AFE4A
:104D6000009A019B164802F0C7FA002825D0FFF7E9
:104D7000DFFF002804D0002001F0F4F900280CD156
:104D800001200021404200F0D9FF032464420C4876
:104D900002F072FA200003B030BD2A00210000208A
:104DA00001F0ECF9041EF2D103246442EFE703247E
:104DB0006442EFE703246442ECE703246442E9E73A
:104DC000581B0020F0B5C64600B582B080460D00E5
:104DD000FA2189006846FFF75DFE009A019B2C4886
:104DE00002F08AFA002803D102B080BCB846F0BDB8
:104DF000FFF79EFF002849D1264B002000211860B4
:104E00005960234802F038FAEEE7012000214042C1
:104E100000F094FF002001F0C5F9FFF789FF00289A
:104E2000EFD0002001F036FA002820D0AC42E8DABA
:104E30002E1B002001F02EFA0200864200DC320018
:104E4000002AE2D043461919002001F007FA0600B3
:104E500001200021404200F071FF002001F0A2F982
:104E6000A419FCF717FE0B4B18605960DEE7FCF73E
:104E700011FE084B1E685F68074A002392197B41A8
:104E80009942BED8D2D19042D0D9BAE70024CDE71A
:104E9000581B0020080D002020A107000048704783
:104EA000888A001000487047348A001010B504004A
:104EB000154B1B78002B0ED0002C11D1134B144A2C
:104EC0005A80012301335B009BB21048C02292003C
:104ED0001343038010BD0C48112100F025F8EBE7C7
:104EE000052C0ED80B4BA400E4580023122BE9D854
:104EF000E15C0029E6D00133044A58008152DBB25C
:104F0000F4E70020E6E7C046701B0020D81200201E
:104F1000090400001C8A001010B5024800F032F8A5
:104F200010BDC0464417002010B5002901D0002351
:104F30000AE0104B104A11481F31FDF743FA0022D6
:104F40000DE03732C25401334A1E9A420ED90F2B5C
:104F50000CD85A080A4CA45CDA07F0D40422144195
:104F60000F222240092AECDC3032EBE7C018002384
:104F7000037010BD1C7F00109C8A0010247F00105D
:104F80004417002030B589B0040004AD0D22002183
:104F90002800FFF711FB0D2200216846FFF70CFBEC
:104FA0004B232B700D226946280002F05DF9002387
:104FB00004E05A1D69468A5CE2540133072BF8DD90
:104FC00009B030BD02007F201040D2094000801897
:104FD0004001014BC01870470C13002010B5038B23
:104FE0003F333F229343022915D0124C2268C260FE
:104FF000D31823609C0610D10F4C6240634080247C
:105000006401A3420FD88906114380231B060B437A
:105010004268136010BD5B00E7E7084B084A094887
:105020005421FDF7CFF9084B054A06485621FDF7F4
:10503000C9F9C0461017002000001050E880001089
:105040000C8B00101881001080810010F8B505004D
:105050000E001400FFF7B6FF7F232B40EF09857089
:105060007A427A4142700022C2700683C476012FD0
:105070000DD0DA0012498C466244826082680021B9
:105080001160002B09D143600E4BC360F8BDDA00FC
:105090000D498C4662448260F0E7012F09D0013B44
:1050A000DB000A4A9446634443602100FFF796FF01
:1050B000ECE7013BDB00064A944663444360F4E7B7
:1050C0008400105000011050800010500C0010504F
:1050D0000800105070B584B006000D0014000C22BA
:1050E000002101A8FFF768FA6B461E7103236A4688
:1050F00053710295210001A802F0F6F804B070BDCA
:1051000070B50C001500FFF75DFF2A00210000F0CC
:105110000DF970BD10B5002804D101210520FBF761
:1051200041FC10BD034B044AD52104484900FDF75A
:1051300049F9C046C8810010FC8A0010188100108F
:1051400010B5002805D1002200218020FFF7D8FFEC
:1051500010BD034B034ADB2103484900FDF732F938
:10516000C8810010EC8A001018810010024B8022C8
:105170005202DA647047C0460020115070B5041E18
:1051800026D100F0ADF8164D0C23AB671549FF2270
:105190000520FBF75BFC144840220021FFF70CFAC6
:1051A000002240210020FFF751FF002240218020F3
:1051B000FFF74CFF02F050F801232B6480239B057E
:1051C000EB649023094AEA502000FFF7CFFF70BD3F
:1051D000074B084A86210848FF31FDF7F3F8C0461F
:1051E00000001150510400200C13002010D00100C9
:1051F000C8810010208B0010188100100B785B060E
:1052000002D14B78052B00D070478A78014B1A6089
:10521000FAE7C0460000115010B50A0000280DD171
:105220008878097953791B020B435B05590DD278B5
:105230009207920FFFF70AFF012010BD034B044AAB
:10524000FC210448FF31FDF7BDF8C046C8810010BD
:10525000DC8A00101881001010B501F0FDFF10BDB0
:1052600010B50400080011001A00002C03D1FFF74C
:1052700047FF012010BD034B034A04480449FDF7D2
:10528000A1F8C046C8810010CC8A00101881001017
:105290000A02000010B508004B0605D1CB09012B0E
:1052A0000AD00222054B9A66FFF78CFE802212017B
:1052B000002102F039F810BD0122F3E7002011505F
:1052C00010B508004B0600D110BDFFF77BFE002390
:1052D000C3700022014902F027F8F5E7FFF7FFFF4E
:1052E00010B580235B040C4A13600C4A13600C4B0E
:1052F0009A6880235B049343F9D10A4C9C220021D5
:105300002000FFF759F98022520100210648FFF7DB
:1053100053F90923636710BD00E0004000F000402E
:1053200000C00040000011500000105070B5040093
:105330000D001600837E002B17D1A6820023E38286
:105340000133A3762561200001F09EFF002804D0E0
:10535000094A902380218902D150200001F09CFF4E
:10536000002805D00123237770BD01F0D5FFE4E7C5
:10537000200001F0C9FFF7E70020115070B50500CB
:1053800000240CE062001219D200184B1B689B1815
:10539000002B2AD05B68280098470134E4B2144BF4
:1053A0001B78A34210D3134A002A0BD0A342E9D89A
:1053B000E31ADBB2002B18D15A00D318DB000E4AD7
:1053C0009B18E7E72300F5E70C4C5322002120004F
:1053D000FFF7F2F8E01C1022FF21FFF7EDF82000A4
:1053E00013302022FF21FFF7E7F870BD100D0020D9
:1053F000821B0020C1490010C88B0010381000200B
:105400000268EFF3108172B61368002BFCD0BFF373
:105410005F8F4160704710B5FFF7B0FF00F0E4FD0B
:1054200010BD70B505000C001600C86800F0E6FD60
:10543000E368320001212800984770BDF0B5DE46D0
:1054400057464E46C0B582B000900139C8B2FFF74A
:1054500029FD002800D18EE043789A46022B00D027
:105460008BE0C5796C1101224A4B14402401197854
:105470001026B14321431970AD112A405201C9B21F
:105480002024A1430A431A70070009378278C378A1
:105490001B021343C418A74266D27B780B2B09D09A
:1054A00001239B467B78042B6ED1E31B9BB299466C
:1054B000002538E0FB789B463B78FF18F2E76B004D
:1054C0005B19DB00344A1668F618002E3DD1002027
:1054D00054E02B0032E0B268304B9A4242D1D346BE
:1054E00040E02C49CB18DD700132D2B2934509D986
:1054F000BB789B18DBB22749C918C978FF29F0D0BF
:1055000000203BE026482B00019E3200390001F0CC
:105510006FF9B4466744234B1B78AB42BBD20020E3
:105520002CE00135EDB21F4B1B78AB42F3D31E4A82
:10553000002ACED0AB42C2D8EB1ADBB2002B25D169
:105540005E00F618F600194BF618B3684A463900A3
:105550000098984701900828E3D98145E1D35B463C
:10556000012BB8D00022C1E7114B002B10D000E076
:1055700000BF012002E0002000E0002002B0E0BCFB
:10558000BB46B246A946F0BD0020F7E70020F5E78C
:105590000120F3E738100020100D0020B163001047
:1055A0004B100020821B0020C1490010C88B001046
:1055B0000000000070B505000C00CB7888780F2B38
:1055C00050D89A002E498A589746FFF767FC020088
:1055D00012232100280000F0D3FC44E0294B002BCB
:1055E00042D000E000BF021E40D08178C3781B0289
:1055F0000B432100280000F0C3FC34E0022B09D04B
:10560000214B002B34D000E000BF0200002A05D15E
:10561000002028E0FFF746FC0200F7E79178D378F6
:105620001B020B432100280000F0AAFC1BE0237999
:10563000617909021943FFF739FC021E1AD0037879
:105640002100280000F09CFC0DE0104B002B13D033
:1056500000E000BF021E11D003782100280000F0F6
:105660008FFC00E0002070BD0020FCE70020FAE77E
:105670000020F8E70020F6E70020F4E70020F2E73A
:105680003C8B001000000000000000000000000043
:10569000024B5878431E9841C0B270473810002022
:1056A000024B18784007C00F7047C04638100020E2
:1056B000034B1878FF38431E9841C0B27047C0466C
:1056C000DC0B002070B50400FFF7F2FF061E01D0CE
:1056D000300070BD244853220021FEF76DFF234D9A
:1056E0002800FBF778FC224B1D60224D2800FBF7B9
:1056F00099FC143D280001F0CFFB1F4B1D601F4B90
:10570000002B04D01E48FFF75BF91E4B18600025E4
:105710000BE06A005219D2001A4B1B689B18002B31
:10572000D6D01B6898470135EDB2154B1B78AB42BC
:1057300010D3124A002A0BD0AB42EAD8EB1ADBB2E4
:10574000002BC5D15A00D318DB000F4A9B18E8E79D
:105750002B00F5E70D4B1C702000FFF70FFD20001C
:10576000FFF7D8FC0126B3E738100020F00F002027
:105770008C100020D40B002090100020C149001094
:10578000821B0020100D0020C88B0010DC0B0020B5
:10579000F0B585B007000E00150001AC0C22002109
:1057A0002000FEF709FF0823637002970396290083
:1057B000200001F099FD05B0F0BD000070B50C00AF
:1057C000094B1D788B7870221A4201D0002070BDE1
:1057D000064B9978200000F0CFFF0028F7D0210079
:1057E0002800FFF719FDF2E7DC0B0020381000203D
:1057F000F8B5CE46474680B581460C0017001E001E
:10580000089B9846002504E0099A13702378E41851
:105810000135AF4214DD6378052B16D1E178890795
:10582000890FB14213D121004846FFF7C7FF002876
:1058300007D0A378DA09012AE6D042461370E5E7DB
:105840000120C0BCB946B046F8BD0020F9E70020F1
:10585000F7E7000010B57F200840C9094000401854
:105860003030044BC0180330034B196800F040FF80
:1058700010BDC046381000208C10002010B57F20CD
:105880000840C909400040183030044BC0180330AC
:10589000034B196800F054FF10BDC04638100020BB
:1058A0008C100020F8B5CE46474680B519480078E0
:1058B0007F250D40CE09184C6F00E419A41930342F
:1058C000E478E40704D50020C0BCB946B046F8BD72
:1058D000114CE419A4193027B946A1444C46E47888
:1058E0000127BC4667463C4327004C46E770FFF75C
:1058F000B7FC0028E8D1084B6D005B199B193033C9
:10590000DA7801218A43DA70DA7803318A43DA706F
:10591000DAE7C046DC0B00203810002070B50F4BD2
:1059200018787F240C40CD090D4B62009B185B1941
:105930003033DB789B0700D570BDFFF7ABFC084B1D
:1059400064001B195B193033DA7802210A43DA70DC
:10595000DA7801210A43DA70EEE7C046DC0B00205A
:105960003810002070B50F4B18787F240C40CD09FB
:105970000D4B62009B185B193033DB789B0700D41A
:1059800070BDFFF79DFC084B64001B195B19303399
:10599000DA7802218A43DA70DA7801398A43DA70D8
:1059A000EEE7C046DC0B0020381000207F220A40C2
:1059B000C909044B52009B185B183033D878800714
:1059C000C00F704738100020F0B5C64600B582B051
:1059D00005000C00002000F011FB2278602313402A
:1059E000602B00D17FE1402B18D02278D206D20E56
:1059F000012A00D1C5E0022A00D10BE1002A00D023
:105A000078E1202B17D0002B00D079E16378092BA7
:105A100000D977E19B00C24AD3589F46C14B002B67
:105A200000D165E1180000F0E9FA22000121280008
:105A300000E000BF58E123790F2B00D95CE1BA4A9E
:105A4000D318DB78B94A002A05D0B94A12789342B4
:105A50000ED39B1ADBB2002B00D04FE15900C918BE
:105A6000C900B44BC91822002800FFF7DAFC3BE15B
:105A70005A00D318DB00B04A1168C9180029F2D1C6
:105A8000002031E1200000F0BFFAA1782800FFF7E4
:105A900057FBA54A137802210B431370012023E121
:105AA000A14B5B786A46063213700123210028005F
:105AB00000F066FA012017E1A6789B4B5B78DBB219
:105AC000B34205D0984B5B78002B09D1002E13D13F
:105AD000954B5E702100280000F03EFA012003E1A2
